:020000040800F2
:10000000F87C00209D010008CD140008C5140008EC
:10001000C9140008C50A0008492D000800000000A6
:10002000000000000000000000000000691B000844
:10003000B112000800000000B3010008B50100087B
:10004000B7010008B7010008B7010008B7010008B0
:10005000B7010008B7010008B7010008B7010008A0
:10006000B7010008B7010008B7010008B701000890
:10007000B7010008B7010008B7010008B701000880
:10008000B7010008B7010008B7010008B701000870
:10009000C90A0008B7010008B7010008B701000845
:1000A000B7010008B7010008B7010008D51F000814
:1000B000FD1F0008212000084D200008B70100089E
:1000C000B7010008B7010008B7010008B701000830
:1000D000B7010008BD260008B701000895270008F1
:1000E000B5120008B7010008B7010008B701000801
:1000F00001210008B7010008B7010008B701000896
:10010000B7010008B7010008B7010008B7010008EF
:10011000B7010008B7010008B7010008B7010008DF
:10012000B7010008B7010008B7010008B7010008CF
:10013000B7010008B7010008B7010008B7010008BF
:10014000F90A0008B7010008B7010008B701000864
:10015000B7010008B7010008B7010008B52700087B
:10016000B7010008B7010008B7010008B70100088F
:10017000B7010008B7010008B7010008B70100087F
:10018000B7010008B7010008DFF80CD000F090F8C4
:1001900000480047F9E10008F87C00200648804745
:1001A00006480047FEE7FEE7FEE7FEE7FEE7FEE75C
:1001B000FEE7FEE7FEE7FEE7D91C0008890100081C
:1001C000D2B201E000F8012B491EFBD27047002299
:1001D000F6E710B513460A4604461946FFF7F0FF46
:1001E000204610BD00F0004230F000400AD0C10DA2
:1001F00001F56071C0F3160042EA0151C2084007E0
:100200001143704700200146704701F0004330B4AD
:1002100021F0004150EA010206D00A0DA2F56072F9
:10022000C1F31301002A02DC30BC00207047440FE8
:1002300044EAC104C100E01830BC00EBC250AFF387
:1002400000800029A8BF7047401C490008BF20F06B
:100250000100704710B4B0FA80FC00FA0CF050EACC
:10026000010404BF10BC704749B1CCF1200421FA4D
:1002700004F411FA0CF118BF012121430843A3EB48
:100280000C01CB1D4FEA00614FEA102042BF002055
:1002900010BC704700EBC35010440029A4BF10BC31
:1002A0007047401C490008BF20F0010010BC704797
:1002B000064C074D06E0E06840F0010394E80700B3
:1002C00098471034AC42F6D3FFF762FF584C010850
:1002D000784C01082DE9FE4F804681EA0300C00FEB
:1002E0000C46009021F0004123F00045B8EB0200DD
:1002F000A94105D24046214690461C460B4602467F
:1003000023F00040104347D0270DC7F30A00C3F382
:100310000A510290401A019040286BDAC3F313008F
:1003200040F4801B0098924620B10023D2EB030AD0
:1003300063EB0B0B01985946C0F14002504600F0A8
:100340008EF906460D4650465946019A00F0A6F928
:1003500010EB08006141002487EA115284EAE77338
:100360001A4340D0009A62B3019A012A4FEA075219
:1003700015DC001B61EB02014FF0004202EA07525C
:10038000CDE90042001C41F5801132462B4600F0B9
:10039000A6F903B0BDE8F08F40462146F9E7001BFF
:1003A00061EB0201001C41F5801300185B4120182D
:1003B000A2F5001747EB030140EAD570B6196D416D
:1003C00011E06D084FEA360645EAC0754FEA07525C
:1003D000001B61EB0201001C41F5801149084FEA46
:1003E00030000019514132462B4603B0BDE8F04FB2
:1003F00000F066B90098012240000023D0EB020211
:1004000063EBE073009821464FEAE074B8EB00001C
:1004100061EB0401E9E783F000435BE781F0004111
:1004200058E72DE9FE4F81EA030404F0004421F06F
:10043000004100944FF0000B23F0004350EA010408
:100440005ED052EA03045BD0C3F30A54C1F30A55E9
:100450002C44A4F2F3340194A0FB0254C1F3130121
:1004600041F48011C3F3130343F4801301FB0244EE
:1004700000FB034E840A970A44EA815447EA8357F3
:10048000A4FB076802958D0A05FB07854FEA932CAC
:1004900004FB0C542705029D4FEA065847EA16371D
:1004A000B5EB08056EEB070C870E920E47EA811735
:1004B00042EA8312A7FB0201B6EB0B0164EB0004D6
:1004C0002B0D43EA0C335E1844EB1C50DA465146C0
:1004D000E7FB0201C5F313044FEA0B3343EA14535D
:1004E0004FEA0432019C43EA0603A4F10C0402948F
:1004F000009CCDE900B400F0F2F803B0BDE8F08F45
:1005000000200146F9E72DE9F04D81EA030404F0EB
:10051000004B21F0004514464FF0000A23F0004143
:1005200050EA050220D054EA01021DD0C5F30A5753
:100530000246C5F31303C1F31300C1F30A5640F496
:10054000801543F48013A7EB0608101BD64608F26B
:10055000FD3873EB050002D308F1010801E09218A1
:100560005B41B8F1000F03DA00200146BDE8F08DD1
:1005700000204FF48011064684460EE0171B73EBF3
:10058000050705D3121B63EB050306434CEA010C78
:1005900049084FEA300092185B4150EA0107EDD15B
:1005A00052EA030012D082EA040083EA05010843FC
:1005B00005D0101BAB4106D20122002306E0002229
:1005C0004FF0004302E06FF0010253101AEB0600F7
:1005D0004CEB085110EB0A0041EB0B01BDE8F04D6C
:1005E00000F06EB80EB5C10F80EAE0700844CA078B
:1005F000002140F233438DE80E000A460B4600F01E
:100600006EF803B000BD0EB540F2334102910021F7
:10061000CDE900110A460B4600F061F803B000BDB9
:1006200070B5C1F30A5201F000450024C1F3130173
:1006300040F2FF3341F480119A4201DA002070BD8C
:1006400040F233439A42A2F2334203DC524200F0BA
:1006500015F800E090402C43F1D0404270BD202AB4
:1006600004DB203A00FA02F1002070479140C2F109
:10067000200320FA03F3194390407047202A04DB3B
:10068000203A21FA02F00021704721FA02F3D0400B
:10069000C2F120029140084319467047202A06DB28
:1006A000CB17203A41FA02F043EAE07306E041FA40
:1006B00002F3D040C2F1200291400843194670472E
:1006C00010B5141E73F1000408DA401C41F100015A
:1006D00092185B411A4301D120F0010010BD2DE9B1
:1006E000F04D92469B4611B1B1FA81F202E0B0FAA8
:1006F00080F220329046FFF7B2FF04460F4640EAF0
:100700000A0041EA0B0153465A46084313D01146EA
:1007100053EA010019D0C8F140025046FFF7AEFF7E
:1007200005460E46504659464246FFF798FF084395
:1007300005D0012004E020463946BDE8F08D0020B8
:10074000054346EAE0762C4337430A986305E40AFA
:10075000A0EB08000022FD0A44EA47540A3002D503
:1007600000200146E9E7010510196941DDE9084566
:1007700000196941BDE8F04DA2E7000082B00A46C9
:1007800001908DF803109DF80300002806D0FFE7C4
:100790000198416841F48061416005E00198416839
:1007A00021F480614160FFE702B0704782B00A46E1
:1007B00001908DF803109DF80300002806D0FFE794
:1007C0000198816841F00101816005E0019881682C
:1007D00021F001018160FFE702B0704782B0019013
:1007E0000020009042F20430C4F201000168009140
:1007F000009943F2E002CFF6FC721140009101999A
:100800000A684B68D1F808C0C9681A4342EA0C026A
:100810001143009A114300910099016002B07047A2
:1008200083B00290019100200090029880680090AF
:10083000009820F4702000900198009908430090DF
:1008400000980299886003B07047000083B002905E
:10085000019100200090029880680090009820F498
:100860004010009001980099084300900098029968
:10087000886003B07047000083B00A4602908DF88C
:10088000071000200090029800909DF80700009942
:100890000844283000900098006880B203B0704788
:1008A00084B003900291002001908DF8030003981A
:1008B0004068019001984FF6FF61CFF6FF41084074
:1008C000019002980179006840EA012001990843EB
:1008D00001900198039948600398806801900198FD
:1008E0004FF2FD71CCF2FF010840019002980169BE
:1008F000C268114382681143407941EA400001997E
:10090000084301900198039988600398C06A019098
:10091000019820F4700001900298007D01389DF844
:10092000031008438DF803009DF80300019941EA84
:100930000050019001980399C86204B0704700000C
:1009400010B585B09C4696460C4604908DF80F1065
:100950008DF80E208DF80D3000200290019000904F
:100960009DF80F000A2822DBFFE70498C068029078
:100970009DF80F0000EB40001E38072101FA00F03F
:1009800001900198029921EA000002909DF80D0063
:100990009DF80F1001EB41011E398840019001982C
:1009A00002990843029002980499C8601FE00498D5
:1009B000006902909DF80F0000EB4000072101FA4A
:1009C00000F001900198029921EA000002909DF840
:1009D0000D009DF80F1001EB410188400190019836
:1009E000029908430290029804990861FFE704986D
:1009F000806B02900298C0F3015000909DF80E00A9
:100A00000099401A0230C1B2890051FA80F01F21CA
:100A100001FA00F001900198029921EA0000029089
:100A20009DF80F009DF80E10009A891A0231CAB283
:100A3000920052FA81F1884001900198029908438E
:100A4000029002980499886305B010BD84B00A46EC
:100A500003908DF80B100020019000900398806B9C
:100A60000190019820F4401001909DF80B0001388E
:100A700000900098019941EA005001900198039973
:100A8000886304B07047000081B0009000988168CE
:100A900041F08041816001B07047000081B000905A
:100AA0000098002101600098017100984171009840
:100AB00081600098C1600098016100980121017572
:100AC00001B07047FFE7FEE780B588B000200790CF
:100AD000069005900490039046F20041C4F2000194
:100AE00003AA029008460299019200F0F3F90198D6
:100AF00006F0D8F808B080BD80B588B00020079017
:100B0000069005900490039046F60001C4F200019F
:100B100003AA029008460299019200F0DBF90198BD
:100B200009F04AFE08B080BD80B584B003900398F8
:100B300046F20041C4F2000188420BD1FFE74FF0BA
:100B400000700121029000F0FBFE0021029800F0ED
:100B5000F7FE0AE04FF080600121019000F0F0FE06
:100B60000021019800F0ECFEFFE704B080BD00001A
:100B700082B00190002000900198807A012101FA52
:100B800000F0009046F20060C4F20000016841F0FD
:100B900001010160009846F21C61C4F200010A687C
:100BA00022EA000008600198007B002822D1FFE7BC
:100BB000009846F20C61C4F200010A6822EA0000C3
:100BC00008600198C188428842EA0141807A46F271
:100BD0004062C4F2000242F8301001988188028815
:100BE00042EA0141807A46F24462C4F2000242F8CD
:100BF0003010FFE70198007B012821D1FFE7009822
:100C000046F20C61C4F200010A68104308600198C2
:100C10000188428842EA0141807A46F24062C4F289
:100C2000000242F8301001988188C28842EA0141EE
:100C3000807A46F24462C4F2000242F83010FFE7C4
:100C40000198C07A00280AD1FFE7009846F20461B3
:100C5000C4F200010A6822EA0000086008E0009877
:100C600046F20461C4F200010A6810430860FFE71D
:100C70000198008900280AD1FFE7009846F2146124
:100C8000C4F200010A6822EA00000860FFE7019848
:100C90000089012809D1FFE7009846F21461C4F2E7
:100CA00000010A6810430860FFE70198407B0128B3
:100CB00009D1FFE7009846F21C61C4F200010A68FE
:100CC00010430860FFE746F20060C4F200000168CC
:100CD00021F00101016002B07047000083B01346AB
:100CE000029001918DF803209DF80300002806D0A2
:100CF000FFE7019802994A691043486106E00198AC
:100D000002994A6922EA00004861FFE703B0704790
:100D100086B00590049100208DF80F000290059890
:100D2000016821F0020101600598016841F00101AC
:100D30000160FFE7059840680021C0070028019185
:100D400008D1FFE702984FF6FF71401A18BF012043
:100D50000190FFE70198C007002804D0FFE7029840
:100D600001300290E6E705984068C007002804D1EA
:100D7000FFE700208DF80F00A7E004988079012894
:100D800006D1FFE70598016841F08001016005E0A8
:100D90000598016821F080010160FFE70498C0799F
:100DA000012806D1FFE70598016841F04001016084
:100DB00005E00598016821F040010160FFE7049813
:100DC000007A012806D1FFE70598016841F020016B
:100DD000016005E00598016821F020010160FFE74E
:100DE0000498407A012806D1FFE70598016841F090
:100DF0001001016005E00598016821F01001016013
:100E0000FFE70498807A012806D1FFE7059801687A
:100E100041F00801016005E00598016821F0080132
:100E20000160FFE70498C07A012806D1FFE7059822
:100E3000016841F00401016005E00598016821F0B6
:100E400004010160FFE704988178C278037990F883
:100E500005C0890741EA026141EA034141EA0C51B8
:100E60000088013808430599C8610598016821F098
:100E70000101016000200290FFE705984068002111
:100E8000C0070028009108D0FFE702984FF6FF71D5
:100E9000401A18BF01200090FFE70098C007002803
:100EA00004D0FFE7029801300290E6E70598406819
:100EB000C007002804D0FFE700208DF80F0003E0F2
:100EC00001208DF80F00FFE7FFE79DF80F0006B047
:100ED0007047000083B00B4602908DF80710009217
:100EE00002989DF8071000EB0110D0F8B00100F057
:100EF0000400009908720098007A00280BD1FFE7DF
:100F000002989DF8071000EB0110D0F8B001400DD9
:100F1000009908600AE002989DF8071000EB0110A4
:100F2000D0F8B001C00800994860FFE702989DF82A
:100F3000071000EB0110D0F8B00100F0020000999A
:100F4000487202989DF8071000EB0110D0F8B40128
:100F500000F00F000099887202989DF8071000EBCE
:100F60000110D0F8B401000A0099C87402989DF8E5
:100F7000071000EB0110D0F8B8010099C872029870
:100F80009DF8071000EB0110D0F8B801000A009995
:100F9000087302989DF8071000EB0110D0F8B80113
:100FA000000C0099487302989DF8071000EB01109F
:100FB000D0F8B801000E0099887302989DF80710C8
:100FC00000EB0110D0F8BC010099C87302989DF89D
:100FD000071000EB0110D0F8BC01000A009908745A
:100FE00002989DF8071000EB0110D0F8BC01000C2E
:100FF0000099487402989DF8071000EB0110D0F892
:10100000BC01000E009988749DF80700002806D1E5
:10101000FFE70298C16841F02001C16005E0029835
:10102000016941F020010161FFE703B07047000052
:1010300081B000900098002181710098C1710098E2
:10104000017200984172009881720098C1720098F4
:1010500081700098C17000980321017100980221ED
:10106000417100980121018001B0704783B0029066
:10107000019100208DF8030002988068400100284B
:1010800004D5FFE700208DF8030019E0029880687E
:101090000001002804D5FFE701208DF803000EE0D1
:1010A00002988068C000002804D5FFE702208DF870
:1010B000030003E004208DF80300FFE7FFE7FFE7EC
:1010C0009DF8030004286ED0FFE702989DF80310F6
:1010D00000EB0110D0F8801101F00101C0F880117F
:1010E0000198007A002810D1FFE701980168407A42
:1010F00040EA415002999DF8032001EB0211D1F81A
:1011000080211043C1F8800111E001984168027A02
:1011100042EAC101407A084302999DF8032001EB9D
:101120000211D1F880211043C1F88001FFE7019836
:10113000817A01F00F01817202989DF8031000EB93
:101140000110D0F8841121F00F01C0F8841101982A
:10115000807A02999DF8032001EB0211D1F88421D5
:101160001043C1F884010198D0F80B0002999DF852
:10117000032001EB0211C1F888010198D0F80F009B
:1011800002999DF8032001EB0211C1F88C0102982D
:101190009DF8031000EB0110D0F8801141F001011F
:1011A000C0F88011FFE79DF8030003B0704700000E
:1011B00085B00A4604908DF80F10002002909DF82B
:1011C0000F0001460028019108D0FFE7019801288F
:1011D0000CD0FFE70198022811D018E0049880682D
:1011E0000321C0F200410840029013E00498806897
:1011F00040F20031C0F60001084002900AE0049875
:1012000080680021C1F203010840029002E0002042
:101210000290FFE70298002800902CD0FFE7012001
:10122000C0F200400099814228D0FFE70320C0F2BD
:101230000040009981422AD0FFE740F20010C0F63A
:101240000000009981421CD0FFE740F20030C0F658
:101250000000009981421DD0FFE70020C1F201008B
:101260000099814210D0FFE70020C1F203000099ED
:10127000814212D014E00220029014E0002002907B
:1012800011E0002002900EE0002002900BE001200F
:10129000029008E00120029005E00120029002E0A7
:1012A00000200290FFE79DF8080005B0704700009D
:1012B0007047000080B54FF4804000F01FF8002810
:1012C00005D0FFE74FF4804000F00EF8FFE74FF441
:1012D000005000F013F8002805D0FFE74FF400504D
:1012E00000F002F8FFE780BD81B00090009843F65F
:1012F0001441C4F20101086001B0704783B002904C
:1013000000208DF80700009043F60040C4F2010071
:10131000006802990840009043F61440C4F20100AE
:1013200000680299084208D0FFE70098002804D01E
:10133000FFE701208DF8070003E000208DF807008B
:10134000FFE79DF8070003B07047000085B00490E8
:10135000039100200290019000900290FFE7029814
:101360000F286ED8FFE70298012101FA00F00190E2
:1013700003980068019908400090009801998842FC
:101380005AD1FFE702984000032101FA00F00499C6
:101390000A6822EA0000086003980079029949006F
:1013A000884004990A68104308600398007901286E
:1013B00005D0FFE703980079022828D1FFE70298BB
:1013C0004000032101FA00F004998A6822EA000033
:1013D00088600398407902994900884004998A6896
:1013E00010438860BDF80800012101FA00F004995B
:1013F0004A6822EA0000486003988079BDF8081026
:10140000884080B204994A6810434860FFE7BDF8FD
:1014100008004000032101FA00F00499CA6822EA9A
:101420000000C8600398C079029949008840049977
:10143000CA681043C860FFE7FFE7029801300290D6
:101440008DE705B07047000080B584B013468C4628
:101450000390ADF80A108DF809200020019000904B
:101460009DF80900BDF80A1001F0070189008840C5
:101470000190BDF80A0000F0070189000F2202FA6E
:1014800001F1039A6FF0030E0EEA50001044026A55
:1014900022EA010101620398BDF80A1047F6FC72C6
:1014A00002EA51010844006A01990843009000983B
:1014B0000399BDF80AE002EA5E021144086204B032
:1014C00080BD0000FFE7FEE7FFE7FEE77047000092
:1014D00082B0019000208DF803008DF802000F20EB
:1014E0008DF801000198C078002847D0FFE74EF63C
:1014F0000C50CEF200000068C043C0F302208DF80B
:1015000003009DF80300C0F104008DF802009DF86F
:1015100001009DF80310C8408DF801000198407843
:101520009DF8021088408DF80300019880789DF89E
:10153000011008409DF8031008438DF803009DF842
:10154000030000018DF803009DF80300019909785C
:101550004EF20042CEF2000288540198007800F06A
:101560001F01012202FA01F14EF20012CEF2000236
:1015700042EAD00020F00300016010E001980078FA
:1015800000F01F01012202FA01F14EF28012CEF2A8
:10159000000242EAD00020F003000160FFE702B041
:1015A0007047000081B0009000980021C0F2FA510D
:1015B00008434EF60C51CEF20001086001B07047AE
:1015C00080B58EB068460221416001220260292068
:1015D00003234FF0000C069105921A466346CDF89E
:1015E00010C00CF099FD0698059900F089F940F2B9
:1015F0000040C4F20000039000F0BCFD0BA8029074
:1016000001F04AF842F2CF00ADF82C000498ADF892
:101610002E004FF6FF710C91ADF8340005998DF84E
:1016200036100398029900F0AFFF0C20ADF82000AF
:101630000498ADF822000599ADF82410ADF8260005
:101640000F22ADF8282008A9039800F0D7FE10213A
:101650000398059A00F02EFF0398059900F072FD9B
:101660001D208DF81C0005988DF81D0006998DF839
:101670001E108DF81F0007A8FFF72AFF0EB080BDCF
:1016800080B58EB0684601214160016008200222C9
:1016900003234FF0000C0691114605921A4663464B
:1016A000CDF810C00CF038FD0698069900F068F9E6
:1016B0000020C4F20100039000F05CFD0BA8029032
:1016C00000F0EAFF40F28F60ADF82C000498ADF80E
:1016D0002E004FF6FF710C91ADF8340006998DF88D
:1016E00036100398029900F04FFF0498ADF82000DF
:1016F000ADF822000699ADF82410ADF826000F22AF
:10170000ADF8282008A9039800F078FE0398059901
:10171000069A00F0CFFE0398069900F013FD1B20F7
:101720008DF81C0006988DF81D0005998DF81E1087
:101730008DF81F0007A8FFF7CBFE0EB080BD00009C
:1017400080B590B068460121416001600F200222FF
:1017500003234FF0000C08900791114606921A4699
:101760006346CDF814C00CF0D7FC0798079900F039
:10177000C7F84FF08040049000F0FCFC0DA80390E7
:1017800000F08AFF42F2CF00ADF834000598ADF8C2
:1017900036004FF6FF710E91ADF83C0007998DF8B9
:1017A0003E100498039900F0EFFE0598ADF828006C
:1017B000ADF82A000799ADF82C10ADF82E00089A64
:1017C000ADF830200AA9049800F018FE0498069994
:1017D000079A00F06FFE0498079900F0B3FC1C20F4
:1017E0008DF8240007988DF8250006998DF82610AD
:1017F0008DF8270009A8FFF76BFE10B080BD000030
:1018000080B58EB0684602214160012202603C2012
:1018100003234FF0000C069105921A466346CDF85B
:1018200010C00CF079FC0420059900F069F840F62E
:101830000000C4F20000039000F09CFC0BA8029092
:1018400000F02AFF42F2CF00ADF82C000498ADF86A
:101850002E004FF6FF710C91ADF8340005998DF80C
:1018600036100398029900F08FFE0498ADF820001E
:10187000ADF822000599ADF82410ADF826000F222E
:10188000ADF8282008A9039800F0B8FD0398069940
:10189000059A00F00FFE0398059900F053FC1E20F6
:1018A0008DF81C0005988DF81D0006998DF81E1006
:1018B0008DF81F0007A8FFF70BFE0EB080BD0000DB
:1018C00082B00A4601908DF803109DF803000028AD
:1018D00009D0FFE7019843F63001C4F202010A681B
:1018E0001043086009E0019843F63001C4F2020198
:1018F0000A6822EA00000860FFE702B070470000B3
:1019000082B00A4601908DF803109DF8030000286C
:1019100009D0FFE7019843F64001C4F202010A68CA
:101920001043086009E0019843F64001C4F2020147
:101930000A6822EA00000860FFE702B07047000072
:1019400082B00A4601908DF803109DF8030000282C
:1019500009D0FFE7019843F62001C4F202010A68AA
:101960001043086009E0019843F62001C4F2020127
:101970000A6822EA00000860FFE702B07047000032
:1019800082B00A4601908DF803109DF803000028EC
:1019900009D0FFE7019843F64401C4F202010A6846
:1019A0001043086009E0019843F64401C4F20201C3
:1019B0000A6822EA00000860FFE702B070470000F2
:1019C00082B00A4601908DF803109DF803000028AC
:1019D00009D0FFE7019843F62401C4F202010A6826
:1019E0001043086009E0019843F62401C4F20201A3
:1019F0000A6822EA00000860FFE702B070470000B2
:101A000088B0079000200690059004900221039171
:101A10000290019143F60800C4F20200006800F051
:101A20000C00069006980028009008D0FFE7009868
:101A300004280BD0FFE7009808280ED051E0079843
:101A400042F20041C0F2F401016051E0079847F60C
:101A50004001C0F27D1101604AE043F60400C4F287
:101A600002000168C1F380510291006800F03F005C
:101A700001900298002811D0FFE7019847F6400135
:101A8000C0F27D11B1FBF0F043F60401C4F2020193
:101A90000968C1F388114843049010E0019842F2AC
:101AA0000041C0F2F401B1FBF0F043F60401C4F2CE
:101AB00002010968C1F3881148430490FFE743F627
:101AC0000400C4F20200006800F44030022101EB7F
:101AD000D030039004980399B0FBF1F007990860A7
:101AE00006E0079842F20041C0F2F4010160FFE70E
:101AF00043F60800C4F20200016801F0F00106910B
:101B0000069909090691069943F60002C0F60102FA
:101B1000515C059107990B68DDF814C023FA0CF3AA
:101B20004B60016801F4E05106910699890A06911B
:101B30000699515C059107994B68DDF814C023FAAA
:101B40000CF38B60006800F4604006900698400B30
:101B500006900698105C059007984168059AD14058
:101B6000C16008B0704700007047000083B00020DB
:101B70000290019043F60000C4F20200016841F4B3
:101B800080310160FFE743F60000C4F20200006804
:101B900000F400300190029801300290FFE70198B4
:101BA00000210028009107D1FFE70298B0F5A0605E
:101BB00018BF01200090FFE70098C0070028E2D17D
:101BC000FFE743F60000C4F202000068800300282B
:101BD00003D5FFE70120019002E000200190FFE71C
:101BE000019801285AD1FFE743F64000C4F20200F1
:101BF000016841F08051016047F20000C4F200002A
:101C0000016841F48041016043F60800C4F202001B
:101C100001680160016841F400410160016841F41C
:101C2000A051016043F60400C4F2020045F21941DC
:101C3000C0F24071016043F60000C4F20200016886
:101C400041F080710160FFE743F60000C4F202003A
:101C500000688001002801D4FFE7F5E743F6004063
:101C6000C4F2020040F20561016043F60800C4F2CC
:101C70000200016821F003010160016841F00201E6
:101C80000160FFE743F60800C4F20200006800F0BC
:101C90000C00082801D0FFE7F4E700E0FFE703B0FD
:101CA0007047000081B000900098042809D1FFE738
:101CB0004EF21000CEF20000016841F00401016014
:101CC00008E04EF21000CEF20000016821F004019D
:101CD0000160FFE701B0704780B54EF68850CEF244
:101CE0000000016841F47001016043F60000C4F295
:101CF0000200016841F00101016043F60801C4F2ED
:101D0000020100220A6001684FF6FF73CFF6F66306
:101D10001940016043F60401C4F2020143F21003CA
:101D2000C2F200430B60016821F48021016043F698
:101D30000C00C4F202000260FFF718FF4EF60850D4
:101D4000CEF200004FF00061016080BD10B584B09C
:101D50009C4696460C460390ADF80A10ADF8082054
:101D6000ADF806300020ADF80400ADF8020003988D
:101D7000018C21F0010101840398008BADF804006F
:101D80000398008CADF80200BDF8040020F0F300C9
:101D9000ADF80400BDF80800BDF8061040EA0110D7
:101DA000BDF804100843ADF80400BDF8020020F0AF
:101DB0000A00ADF80200BDF80A00BDF802100843A1
:101DC00040F00100ADF80200BDF80400039908835B
:101DD000BDF802000399088404B010BD10B584B0AA
:101DE0009C4696460C460390ADF80A10ADF80820C4
:101DF000ADF806300020ADF80400ADF80200ADF8F3
:101E000000000398018C21F0100101840398008BDD
:101E1000ADF804000398008CADF80200BDF80A008C
:101E20000001ADF80000BDF8040040F6FF41084095
:101E3000ADF80400BDF80600BDF8041041EA00301A
:101E4000ADF80400BDF80800BDF8041041EA002018
:101E5000ADF80400BDF8020020F0A000ADF80200CB
:101E6000BDF80000BDF80210084340F01000ADF8C6
:101E70000200BDF8040003990883BDF8020003992D
:101E8000088404B010BD000010B584B09C4696468E
:101E90000C460390ADF80A10ADF80820ADF80630F6
:101EA0000020ADF80400ADF80200ADF80000039882
:101EB000018C21F4807101840398808BADF80400BB
:101EC0000398008CADF80200BDF80A000002ADF8DE
:101ED0000000BDF8040020F0F300ADF80400BDF8E8
:101EE0000800BDF8061040EA0110BDF804100843D0
:101EF000ADF80400BDF8020020F42060ADF8020047
:101F0000BDF80000BDF80210084340F48070ADF841
:101F10000200BDF8040003998883BDF8020003990C
:101F2000088404B010BD000010B584B09C469646ED
:101F30000C460390ADF80A10ADF80820ADF8063055
:101F40000020ADF80400ADF80200ADF800000398E1
:101F5000018C21F4805101840398808BADF804003A
:101F60000398008CADF80200BDF80A000003ADF83C
:101F70000000BDF8040040F6FF410840ADF8040041
:101F8000BDF80800BDF8041041EA0020ADF80400D7
:101F9000BDF80600BDF8041041EA0030ADF80400B9
:101FA000BDF8020045F6FF710840ADF80200BDF82B
:101FB0000000BDF80210084340F48050ADF8020064
:101FC000BDF8040003998883BDF8020003990884D2
:101FD00004B010BD80B50020C4F20100022100F061
:101FE000DDF9002809D0FFE70020C4F2010002213A
:101FF00000F09CF80DF004F8FFE780BD80B54FF0CD
:102000008040022100F0CAF9002808D0FFE74FF015
:102010008040022100F08AF80DF054F8FFE780BDFF
:1020200080B540F20040C4F20000102100F0B6F983
:1020300000280AD0FFE740F20040C4F2000010215F
:1020400000F074F80CF082FFFFE780BD80B540F629
:102050000000C4F20000022100F0A0F900280AD01C
:10206000FFE740F60000C4F20000022100F05EF835
:102070000DF088F8FFE780BD80B588B0022001210F
:102080000391FFF77DFC40F20040C4F20100029092
:1020900000F070F805A8019000F0FEFA0020ADF8FD
:1020A00014002021ADF8161042F2D0010691ADF8CF
:1020B0001C0003998DF81E10029A00901046019999
:1020C00000F062FA02980399039A00F0F3F902987B
:1020D000039900F02BF80298009900F033F82C20B7
:1020E0008DF8100003988DF8110000998DF81210EA
:1020F0008DF8130004A8FFF7EBF908B080BD0000CD
:1021000080B540F20040C4F20100012100F046F920
:1021100000280AD0FFE740F20040C4F2010001218C
:1021200000F004F80CF076F8FFE780BD82B00A46B4
:102130000190ADF80210BDF80200C0430199088279
:1021400002B0704782B00A4601908DF803109DF8E6
:102150000300002806D0FFE70198018841F0010143
:10216000018005E00198018821F001010180FFE76D
:1021700002B0704780B590B00F900F980021C4F264
:10218000010188420AD1FFE701200E900E99FFF766
:1021900017FC00210E98FFF713FCF7E00F98B0F141
:1021A000804F0AD1FFE701200D900D99FFF7C8FB82
:1021B00000210D98FFF7C4FBE7E00F9840F20041C3
:1021C000C4F2000188420AD1FFE7022001210C90ED
:1021D000FFF7B6FB00210C98FFF7B2FBD4E00F9895
:1021E00040F60001C4F2000188420AD1FFE7042052
:1021F00001210B90FFF7A4FB00210B98FFF7A0FB38
:10220000C1E00F9840F60041C4F2000188420AD1B3
:10221000FFE7082001210A90FFF792FB00210A98AE
:10222000FFF78EFBAEE00F9841F20001C4F200010F
:1022300088420AD1FFE7102001210990FFF780FBB7
:1022400000210998FFF77CFB9BE00F9841F20041C9
:10225000C4F2000188420AD1FFE720200121089042
:10226000FFF76EFB00210898FFF76AFB88E00F98E4
:1022700040F20041C4F2010188420AD1FFE7022086
:1022800001210790FFF79CFB00210798FFF798FBBF
:1022900075E00F9844F20001C4F2010188420BD1AD
:1022A000FFE74FF4803001210690FFF789FB002102
:1022B0000698FFF785FB61E00F9844F20041C4F2F5
:1022C000010188420BD1FFE74FF400300121059056
:1022D000FFF776FB00210598FFF772FB4DE00F98A2
:1022E00044F60001C4F2010188420BD1FFE74FF42C
:1022F000802001210490FFF763FB00210498FFF781
:102300005FFB39E00F9841F60001C4F200018842FA
:102310000AD1FFE7402001210390FFF711FB0021C4
:102320000398FFF70DFB26E00F9841F60041C4F239
:10233000000188420AD1FFE7802001210290FFF7C7
:10234000FFFA00210298FFF7FBFA13E00F9842F220
:102350000001C4F2000188420BD1FFE74FF4807006
:1023600001210190FFF7ECFA00210198FFF7E8FA4C
:10237000FFE7FFE7FFE7FFE7FFE7FFE7FFE7FFE72D
:10238000FFE7FFE7FFE7FFE7FFE7FFE710B080BDEC
:1023900081B000900098406A01B0704783B00A464F
:1023A0000290ADF8061000208DF80500ADF802008F
:1023B000ADF800000298008ABDF806100840ADF89C
:1023C000020002988089BDF806100840ADF80000B0
:1023D000BDF80200002809D0FFE7BDF80000002882
:1023E00004D0FFE701208DF8050003E000208DF800
:1023F0000500FFE79DF8050003B0704780B586B083
:102400000590049104980088002811D1FFE70598F1
:1024100004994A888B880989039111461A46039BBF
:10242000FFF794FC05980499C98800F061F83EE034
:1024300004980088042811D1FFE7059804994A8878
:102440008B880989029111461A46029BFFF7C6FC48
:1024500005980499C98800F05DF827E00498008881
:10246000082811D1FFE7059804994A888B880989C3
:10247000019111461A46019BFFF706FD0598049944
:10248000C98800F05BF810E0059804994A888B88A9
:102490000989009111461A46009BFFF745FD0598F2
:1024A0000499C98800F05CF8FFE7FFE7FFE706B092
:1024B00080BD000082B013468C460190ADF802103A
:1024C0008DF801209DF80100002807D0FFE7BDF836
:1024D000020001998A891043888107E0BDF8020053
:1024E00001998A8922EA00008881FFE702B07047DB
:1024F00082B00A460190ADF802100198018B21F0DC
:102500000C010183BDF8020001990B8B184308836D
:1025100002B0704782B00A460190ADF802100198EF
:10252000018B21F440610183BDF8020001990B8BFE
:1025300043EA0020088302B07047000082B00A46D8
:102540000190ADF802100198818B21F00C0181837C
:10255000BDF8020001998B8B1843888302B0704745
:1025600082B00A460190ADF802100198818B21F4E7
:1025700040618183BDF8020001998B8B43EA002002
:10258000888302B07047000083B002900191002060
:10259000ADF8020002980088ADF802000298002110
:1025A000C4F20101884225D0FFE7029840F20041C1
:1025B000C4F2010188421DD0FFE70298B0F1804FBC
:1025C00018D0FFE7029840F20041C4F200018842AF
:1025D00010D0FFE7029840F60001C4F200018842E3
:1025E00008D0FFE7029840F60041C4F2000188429B
:1025F0000ED1FFE7BDF8020020F07000ADF8020038
:1026000001984088BDF802100843ADF80200FFE7CA
:10261000029841F20001C4F20001884216D0FFE79F
:10262000029841F20041C4F2000188420ED0FFE757
:10263000BDF8020020F44070ADF802000198008956
:10264000BDF802100843ADF80200FFE7BDF8020034
:1026500002990880019840680299C8620198008830
:102660000299088502980021C4F20101884208D02D
:10267000FFE7029840F20041C4F20101884205D10F
:10268000FFE70198807A02990886FFE70298012106
:10269000818203B07047000081B0009000984FF035
:1026A000FF3141600098002101800098018100986D
:1026B00041800098817201B07047000080B582B0FF
:1026C00041F20000C4F2010040F2255100F0C8F9C7
:1026D00000280DD0FFE741F20000C4F2010000F035
:1026E0001DFB8DF807009DF8070009F027FB4EE061
:1026F00041F20000C4F2010040F2266100F0B0F99E
:10270000002843D0FFE741F20000C4F2010040F28C
:10271000266100F0CBF840F26010C2F20000807930
:10272000002832D0FFE740F26010C2F20000017AC8
:1027300001310172C179007A88420FDAFFE740F275
:102740006010C2F20000017A084490F8F81041F2DB
:102750000000C4F2010000F0E9FA15E040F2601058
:10276000C2F20000C16A0131C16200218171417170
:10277000417040F22030C2F20000017040F2AC2003
:10278000C4F240200160FFE7FFE7FFE7FFE702B088
:1027900080BD000080B544F60000C4F2000040F2A5
:1027A000255100F05DF9002803D0FFE710F0F6F89E
:1027B000FFE780BD80B582B041F20040C4F2010065
:1027C00040F2255100F04CF900280DD0FFE741F20E
:1027D0000040C4F2010000F0A1FA8DF807009DF856
:1027E00007000BF0C9FE4AE041F20040C4F20100CC
:1027F00040F2266100F034F900283FD0FFE741F2B3
:102800000040C4F2010040F2266100F04FF840F2AF
:102810002030C2F20000807900282ED0FFE740F27D
:102820002030C2F20000017A01310172C179007AD0
:1028300088420FDAFFE740F22030C2F20000017A4E
:10284000084490F8A51041F20040C4F2010000F0E5
:102850006DFA11E040F22030C2F20000816A0131CD
:1028600081620021817141714170017040F2A020AC
:10287000C4F241200160FFE7FFE7FFE7FFE702B096
:1028800080BD000082B00A460190ADF80210BDF88C
:1028900002008005002801D5FFE7FFE7BDF8020030
:1028A000C0430199088002B07047000083B00A4617
:1028B0000290ADF806100020ADF80400ADF802005B
:1028C000BDF8060040F66A11884201D1FFE7FFE734
:1028D0009DF80700ADF80400BDF80400012101FADD
:1028E00000F0ADF80200BDF80200C0430299088074
:1028F00003B0704782B00A4601908DF803109DF82E
:102900000300002806D0FFE70198818941F40051B7
:10291000818105E00198818921F400518181FFE7DF
:1029200002B0704780B588B00790079841F2000167
:10293000C4F2010188420AD1FFE71020012106906C
:10294000FFF73EF800210698FFF73AF862E0079893
:1029500044F20041C4F2000188420BD1FFE74FF47A
:10296000003001210590FEF7EBFF00210598FEF7EE
:10297000E7FF4EE0079844F60001C4F200018842E8
:102980000BD1FFE74FF4802001210490FEF7D8FF20
:1029900000210498FEF7D4FF3AE0079844F600417E
:1029A000C4F2000188420BD1FFE74FF4002001215F
:1029B0000390FEF7C5FF00210398FEF7C1FF26E054
:1029C000079845F20001C4F2000188420BD1FFE7ED
:1029D0004FF4801001210290FEF7B2FF002102980F
:1029E000FEF7AEFF12E0079841F20041C4F2010188
:1029F00088420AD1FFE7202001210190FEF7E0FF85
:102A000000210198FEF7DCFFFFE7FFE7FFE7FFE7A4
:102A1000FFE7FFE708B080BD82B00A460190ADF83D
:102A2000021000208DF80100BDF80200B0F5007F13
:102A300001D1FFE7FFE701980088BDF802100840C8
:102A40000004002804D0FFE701208DF8010003E016
:102A500000208DF80100FFE79DF8010002B07047EB
:102A600086B00A460590ADF812100020039002903F
:102A700001908DF80300BDF8120040F66A118842FB
:102A800001D1FFE7FFE79DF8120040090190BDF872
:102A9000120000F01F0002900298012101FA00F0DC
:102AA00002900198012806D1FFE7059880890299D4
:102AB0000840029010E00198022806D1FFE705982F
:102AC000008A02990840029005E00598808A0299E0
:102AD00008400290FFE7FFE79DF81300039003987A
:102AE000012101FA00F0039005980088039908403D
:102AF00003900298002808D0FFE70398002804D02C
:102B0000FFE701208DF8030003E000208DF80300AB
:102B1000FFE79DF8030006B07047000086B013463B
:102B20008C460590ADF812108DF81120002003900E
:102B3000029001900090BDF8120040F66A118842A0
:102B400001D1FFE7FFE7059800909DF812004009CA
:102B50000390BDF8120000F01F00029002980121BE
:102B600001FA00F001900398012804D1FFE70098D2
:102B70000C3000900CE00398022804D1FFE7009885
:102B80001030009003E0009814300090FFE7FFE75A
:102B90009DF81100002806D0FFE7019800990A6807
:102BA0001043086006E0019800990A6822EA0000D4
:102BB0000860FFE706B0704780B58AB009900891B9
:102BC00000200790069005900490089880890028BE
:102BD00001D0FFE7FFE70998008A0790079820F4E3
:102BE000405007900898C0880799084307900798B5
:102BF00009990882099880890790079841F20C6129
:102C000088430790089881880289114340890843C6
:102C10000799084307900798099988810998808A3D
:102C20000790079820F440700790089880890799CA
:102C3000084307900798099988826846FEF7E0FEE6
:102C4000099841F20001C4F20101884208D0FFE76F
:102C5000099841F20041C4F20101884203D1FFE723
:102C60000398069002E002980690FFE70998808991
:102C7000000400280AD5FFE706981921484308995F
:102C800009684900B0FBF1F0059009E006981921A8
:102C90004843089909688900B0FBF1F00590FFE707
:102CA000059848F21F51C5F2EB11A0FB01016FF02E
:102CB0000F0202EA510107910599079A120964234C
:102CC00002FB13110491099989890904002910D57F
:102CD000FFE70498322101EBC00048F21F51C5F212
:102CE000EB11A0FB0101C1F34211079A11430791B7
:102CF0000FE00498322101EB001048F21F51C5F299
:102D0000EB11A0FB0101C1F34311079A1143079195
:102D1000FFE70798099908810AB080BD81B000904B
:102D2000009880886FF35F2001B0704782B00A4638
:102D30000190ADF80210BDF802006FF35F20019919
:102D4000888002B070470000FFE7FEE783B00246CC
:102D50008DF80B0001919DF80B00014605280091AC
:102D600052D80099DFE801F003101C283542019881
:102D700000210170019805214170019806218170A0
:102D80000198032181804BE0019800210170019896
:102D900005214170019881700198042181803FE0F4
:102DA00001980021017001980521417001980621C8
:102DB00081700198818033E00198002101700198B1
:102DC0000521417001980621817001980C218180B4
:102DD00026E00198002101700198052141700198B9
:102DE0000621817001981E21818019E0019800213F
:102DF00001700198052141700198062181700198A8
:102E00004FF4967181800BE00198002101700198C8
:102E10000521417001980621817001988180FFE7AA
:102E200003B0704780B588B00A4603468DF81F008E
:102E30008DF81E100020ADF81C00ADF81A008DF8BA
:102E400019008DF818008DF817009DF81E00002855
:102E500031D1FFE79DF81F00013042F63011C2F278
:102E6000000181F8AC0301F56B70032281F8AD23FA
:102E7000082281F8AE23012381F8AF33002381F8C3
:102E8000B033132381F8B13306230491194603921A
:102E900008F0ECFCADF81C009DF81D00049981F8C9
:102EA000B203BDF81C0081F8B303039888729DF843
:102EB0001E208A7339E39DF81E00012840F04F81DF
:102EC000FFE79DF81F0042F63011C2F2000101EB4E
:102ED000800090F86400C007002808D0FFE70020B9
:102EE0008DF8170040F20170ADF81A00E5E09DF88A
:102EF0001F0042F63011C2F2000101EB800090F891
:102F000064008007002808D5FFE701208DF817002E
:102F100040F20570ADF81A00CEE09DF81F0042F6B1
:102F20003011C2F2000101EB800090F8640040070C
:102F3000002808D5FFE702208DF8170040F2067040
:102F4000ADF81A00B7E09DF81F0042F63011C2F24A
:102F5000000101EB800090F864000007002808D50C
:102F6000FFE703208DF8170040F20770ADF81A0054
:102F7000A0E09DF81F0042F63011C2F2000101EB03
:102F8000800090F86400C006002808D5FFE7042000
:102F90008DF817004FF4E160ADF81A0089E09DF854
:102FA0001F0042F63011C2F2000101EB800090F8E0
:102FB00064008006002808D5FFE705208DF817007B
:102FC00040F20970ADF81A0072E09DF81F0042F659
:102FD0003011C2F2000101EB800090F8640040065D
:102FE000002808D5FFE706208DF8170040F20E7084
:102FF000ADF81A005BE09DF81F0042F63011C2F2F6
:10300000000101EB800090F864000006002807D55D
:10301000FFE707208DF817000120ADF81A0045E002
:103020009DF81F0042F63011C2F2000101EB800052
:1030300090F86500C007002807D0FFE708208DF84A
:1030400017000220ADF81A002FE09DF81F0042F68D
:103050003011C2F2000101EB800090F8650080079A
:10306000002807D5FFE709208DF817000320ADF8E9
:103070001A0019E09DF81F0042F63011C2F200015B
:1030800001EB800090F865004007002807D5FFE7B6
:103090000A208DF817000420ADF81A0003E0FF2085
:1030A0008DF81700FFE7FFE7FFE7FFE7FFE7FFE720
:1030B000FFE7FFE7FFE7FFE7FFE79DF81700FF28BF
:1030C00040D0FFE79DF81B008DF81900BDF81A00ED
:1030D0008DF818009DF81F00013042F63011C2F241
:1030E000000181F8AC0301F56B70032281F8AD2378
:1030F0009DF8192081F8AE239DF8182081F8AF23A0
:10310000002281F8B023012281F8B1230622029126
:10311000114608F0ABFBADF81C009DF81D000299AC
:1031200081F8B203BDF81C0081F8B303082088724F
:103130009DF81E0088739DF81700C873BDF81A002B
:1031400008820BE042F63010C2F2000000218172CA
:103150009DF81F2000EB82004166FFE7E4E19DF847
:103160001E00022840F0DF81FFE79DF81F0042F6B5
:103170003011C2F2000101EB800090F83C00C00762
:10318000002815D0FFE700208DF8170040F20170ED
:10319000ADF81A009DF81F0042F63011C2F200018E
:1031A000162210FB0210B0F80802ADF81C0067E10F
:1031B0009DF81F0042F63011C2F2000101EB8000C1
:1031C00090F83C008007002815D5FFE701208DF816
:1031D000170040F20570ADF81A009DF81F0042F686
:1031E0003011C2F20001162210FB0210B0F80A02E0
:1031F000ADF81C0043E19DF81F0042F63011C2F209
:10320000000101EB800090F83C004007002815D534
:10321000FFE702208DF8170040F20670ADF81A00A3
:103220009DF81F0042F63011C2F20001162210FB79
:103230000210B0F80C02ADF81C001FE19DF81F0051
:1032400042F63011C2F2000101EB800090F83C0020
:103250000007002815D5FFE703208DF8170040F27E
:103260000770ADF81A009DF81F0042F63011C2F247
:103270000001162210FB0210B0F80E02ADF81C007F
:10328000FBE09DF81F0042F63011C2F2000101EB95
:10329000800090F83C00C006002815D5FFE7042008
:1032A0008DF817004FF4E160ADF81A009DF81F008B
:1032B00042F63011C2F20001162210FB0210B0F8E3
:1032C0001002ADF81C00D7E09DF81F0042F6301147
:1032D000C2F2000101EB800090F83C00800600285B
:1032E00015D5FFE705208DF8170040F20970ADF8FD
:1032F0001A009DF81F0042F63011C2F2000116229A
:1033000010FB0210B0F81202ADF81C00B3E09DF8FB
:103310001F0042F63011C2F2000101EB800090F86C
:103320003C004006002815D5FFE706208DF8170061
:1033300040F20E70ADF81A009DF81F0042F63011F1
:10334000C2F20001162210FB0210B0F81402ADF810
:103350001C008FE09DF81F0042F63011C2F2000100
:1033600001EB800090F83C000006002814D5FFE730
:1033700007208DF817000120ADF81A009DF81F00F6
:1033800042F63011C2F20001162210FB0210B0F812
:103390001602ADF81C006CE09DF81F0042F63011DB
:1033A000C2F2000101EB800090F83D00C007002848
:1033B00014D0FFE708208DF817000220ADF81A009E
:1033C0009DF81F0042F63011C2F20001162210FBD8
:1033D0000210B0F81802ADF81C0049E09DF81F007B
:1033E00042F63011C2F2000101EB800090F83D007E
:1033F0008007002814D5FFE709208DF81700032067
:10340000ADF81A009DF81F0042F63011C2F200011B
:10341000162210FB0210B0F81A02ADF81C0026E0CC
:103420009DF81F0042F63011C2F2000101EB80004E
:1034300090F83D004007002814D5FFE70A208DF8DA
:1034400017000420ADF81A009DF81F0042F6301155
:10345000C2F20001162210FB0210B0F81C02ADF8F7
:103460001C0003E0FF208DF81700FFE7FFE7FFE7F0
:10347000FFE7FFE7FFE7FFE7FFE7FFE7FFE7FFE71C
:103480009DF81700FF2841D0FFE79DF81B008DF83D
:103490001900BDF81A008DF818009DF81F000130C2
:1034A00042F63011C2F2000181F8AC0301F56B70F5
:1034B000062281F8AD239DF8193081F8AE339DF8CE
:1034C000183081F8AF339DF81D3081F8B033BDF866
:1034D0001C3081F8B1330191114608F0C7F9ADF8FD
:1034E0001C009DF81D00019981F8B203BDF81C0075
:1034F00081F8B303082088729DF81E0088739DF838
:103500001700C873BDF81A0008820BE042F63010AD
:10351000C2F20000002181729DF81F2000EB8200A2
:10352000C163FFE7FFE7FFE7FFE708B080BD0000EA
:1035300084B00020ADF80E00ADF80C008DF80B0043
:103540008DF80A008DF8090042F63010C2F2000032
:1035500090F8E412007B0130814240F09483FFE751
:1035600042F63010C2F20000017B407B814280F2C3
:103570008A83FFE742F63010C2F2000090F8E502BD
:10358000032840F04982FFE742F63010C2F2000003
:10359000807B002840F0C780FFE742F63010C2F27F
:1035A000000090F8E71290F8E82242EA0121027B3D
:1035B00026235A4300F18C0C2CF8021090F8E912E3
:1035C00090F8EA2242EA0121027B12FB03C25180F9
:1035D00090F8EB1290F8EC2242EA0121027B12FBF8
:1035E00003C2918090F8ED1290F8EE2242EA012198
:1035F000027B12FB03C2D18090F8EF1290F8F02208
:1036000042EA0121027B12FB03C2118190F8F11200
:1036100090F8F22242EA0121027B12FB03C251819F
:1036200090F8F31290F8F42242EA0121027B12FB97
:1036300003C2918190F8F51290F8F62242EA012136
:10364000027B12FB03C2D18190F8F71290F8F822A6
:1036500042EA0121027B12FB03C2118290F8F912A7
:1036600090F8FA2242EA0121027B12FB03C2518246
:1036700090F8FA1290F8FC2242EA0121027B12FB38
:1036800003C2918290F8FD1290F8FE2242EA0121D5
:10369000027B12FB03C2D18290F8FF1290F8002344
:1036A00042EA0121027B12FB03C2118390F801134D
:1036B00090F8022342EA0121027B12FB03C25183EC
:1036C00090F8031390F8042342EA0121027B12FBD5
:1036D00003C2918390F8051390F8062342EA012172
:1036E000027B12FB03C2D18390F8071390F80823E2
:1036F00042EA0121027B12FB03C2118490F80913F4
:1037000090F80A2342EA0121027B12FB03C2518492
:1037100090F80B1390F80C2342EA0121007B10FB78
:1037200003C0818477E142F63010C2F20000807B52
:10373000012840F06F81FFE742F63010C2F200002E
:1037400090F8E71290F8E82242EA0121ADF80E1055
:10375000C07B01461228019100F25A810199DFE8ED
:1037600011F0130027003B004F00630077008B002F
:103770009F00B300C700DB00EF00FB00070113014F
:10378000270133013F014B01BDF80E0042F6301115
:10379000C2F200010A7B162312FB0312A2F80802F0
:1037A000087B01EB8000416E21F00101416630E1B0
:1037B000BDF80E0042F63011C2F200010A7B16235A
:1037C00012FB0312A2F80A02087B01EB8000416E93
:1037D00021F0020141661CE1BDF80E0042F63011F5
:1037E000C2F200010A7B162312FB0312A2F80C029C
:1037F000087B01EB8000416E21F00401416608E185
:10380000BDF80E0042F63011C2F200010A7B162309
:1038100012FB0312A2F80E02087B01EB8000416E3E
:1038200021F008014166F4E0BDF80E0042F63011C7
:10383000C2F200010A7B162312FB0312A2F8100247
:10384000087B01EB8000416E21F010014166E0E051
:10385000BDF80E0042F63011C2F200010A7B1623B9
:1038600012FB0312A2F81202087B01EB8000416EEA
:1038700021F020014166CCE0BDF80E0042F6301187
:10388000C2F200010A7B162312FB0312A2F81402F3
:10389000087B01EB8000416E21F040014166B8E0F9
:1038A000BDF80E0042F63011C2F200010A7B162369
:1038B00012FB0312A2F81602087B01EB8000416E96
:1038C00021F080014166A4E0BDF80E0042F63011FF
:1038D000C2F200010A7B162312FB0312A2F818029F
:1038E000087B01EB8000416E21F48071416690E01D
:1038F000BDF80E0042F63011C2F200010A7B162319
:1039000012FB0312A2F81A02087B01EB8000416E41
:1039100021F4007141667CE0BDF80E0042F63011E2
:10392000C2F200010A7B162312FB0312A2F81C024A
:10393000087B01EB8000416E21F48061416668E004
:1039400042F63010C2F20000017B00EB8100416EB4
:1039500021F4006141665CE042F63010C2F20000E2
:10396000017B00EB8100416E21F48051416650E003
:1039700042F63010C2F20000017B00EB8100416E84
:1039800021F40051416644E0BDF80E0042F63011CA
:10399000C2F200010A7B162312FB0312A2F81602E0
:1039A000087B01EB8000416E21F48041416630E0EC
:1039B00042F63010C2F20000017B00EB8100416E44
:1039C00021F40041416624E042F63010C2F20000CA
:1039D000017B00EB8100416E21F48031416618E0EB
:1039E00042F63010C2F20000017B00EB8100416E14
:1039F00021F4003141660CE042F63010C2F20000C2
:103A0000017B00EB8100416E21F48021416600E0E2
:103A1000FFE7FFE7FFE735E142F63010C2F20000B2
:103A200090F8E502062840F02C81FFE742F63010BE
:103A3000C2F20000807B022840F02281FFE742F6BC
:103A40003010C2F2000090F8E6128DF80B1090F8DA
:103A5000E7128DF80A109DF80B109DF80A2042EA33
:103A60000121ADF80C1090F8E81290F8E92242EA32
:103A70000121ADF80E10008ABDF80C10884240F00C
:103A8000FE80FFE742F63010C2F20000C07B014624
:103A90001228009100F2F1800099DFE801F00A1687
:103AA000222E3A46525E6A76828E9AA6B2BECAD656
:103AB000E20042F63010C2F20000017B00EB810010
:103AC000C16B21F00101C163D8E042F63010C2F2AF
:103AD0000000017B00EB8100C16B21F00201C1639A
:103AE000CCE042F63010C2F20000017B00EB810016
:103AF000C16B21F00401C163C0E042F63010C2F294
:103B00000000017B00EB8100C16B21F00801C16363
:103B1000B4E042F63010C2F20000017B00EB8100FD
:103B2000C16B21F01001C163A8E042F63010C2F26F
:103B30000000017B00EB8100C16B21F02001C1631B
:103B40009CE042F63010C2F20000017B00EB8100E5
:103B5000C16B21F04001C16390E042F63010C2F227
:103B60000000017B00EB8100C16B21F08001C1638B
:103B700084E042F63010C2F20000017B00EB8100CD
:103B8000C16B21F48071C16378E042F63010C2F25B
:103B90000000017B00EB8100C16B21F40071C16367
:103BA0006CE042F63010C2F20000017B00EB8100B5
:103BB000C16B21F48061C16360E042F63010C2F253
:103BC0000000017B00EB8100C16B21F40061C16347
:103BD00054E042F63010C2F20000017B00EB81009D
:103BE000C16B21F48051C16348E042F63010C2F24B
:103BF0000000017B00EB8100C16B21F40051C16327
:103C00003CE042F63010C2F20000017B00EB810084
:103C1000C16B21F48041C16330E042F63010C2F242
:103C20000000017B00EB8100C16B21F40041C16306
:103C300024E042F63010C2F20000017B00EB81006C
:103C4000C16B21F48031C16318E042F63010C2F23A
:103C50000000017B00EB8100C16B21F40031C163E6
:103C60000CE042F63010C2F20000017B00EB810054
:103C7000C16B21F48021C16300E0FFE7FFE7FFE7AC
:103C8000FFE7FFE7FFE704B07047000080B58CB0A6
:103C900000208DF82F008DF82E008DF82D00ADF846
:103CA0002A0040F22030C2F2000090F830001138B3
:103CB00001461928089101F20C800899DFE811F0FB
:103CC0001A001C001E00090809080908090809084B
:103CD000090809080908090809080908090809085C
:103CE00009082200CD00B7011402710231039404C7
:103CF0002000A70600F0EEBF00F0ECBF00F0EABF26
:103D000000F0E8BF40F22030C2F2000090F831101D
:103D100040F24042C2F20002118090F8321051800D
:103D200090F8331090F8343043EA0121918090F8F4
:103D3000351090F8363043EA0121D18090F83710E1
:103D400090F8383043EA0121118190F8391090F849
:103D50003A3043EA0121518190F83B1090F83C3011
:103D600043EA0121918190F83D1090F83E3043EAFA
:103D70000121D18190F83F1090F8403043EA0121B1
:103D8000118290F8411090F8423043EA01215182AB
:103D900090F8431090F8443043EA0121918290F862
:103DA000451090F8463043EA0121D18290F847103F
:103DB00090F8483043EA0121118390F8491090F8B7
:103DC0004A3043EA0121518390F84B10918390F8D7
:103DD0004C10D18390F84D10118490F84E105184FE
:103DE00090F84F00908400208DF82F00FFE79DF899
:103DF0002F000B2810DCFFE79DF82F0040F2400158
:103E0000C2F20001084401218177FFE79DF82F00ED
:103E100001308DF82F00EAE740F22030C2F20000B6
:103E20005A2100F8A51F4B2141700221079007F08D
:103E30001DFDADF82A00BDF82A00079988709DF88D
:103E40002B00C870012001F89F0C042001F89E0C83
:103E5000052021F8990C00F03DBF40F22030C2F25D
:103E6000000090F82F1001398DF82E105A2180F89B
:103E7000A5104B2180F8A6109DF82E000B2800F30A
:103E80009980FFE79DF82E0040F21861C2F2000110
:103E900078314FF4227210FB021090F8680140F262
:103EA0002033C2F2000383F8A7009DF82E0010FB18
:103EB000021090F88C0183F8A8009DF82E0010FBEA
:103EC000021090F8B00183F8A9009DF82E0010FBB5
:103ED000021090F8D40183F8AA009DF82E0010FB80
:103EE000021090F8F80183F8AB009DF82E0010FB4B
:103EF000021090F81C0283F8AC009DF82E0010FB15
:103F0000021090F8400283F8AD009DF82E0010FBDF
:103F1000021090F8640283F8AE00002083F8AF002E
:103F200083F8B00083F8B10083F8B20083F8B300DF
:103F300083F8B40083F8B50083F8B60083F8B700BF
:103F400083F8B80083F8B90083F8BA009DF82E0012
:103F500010FB021093F82CC00CEBCC0C00EB8C0087
:103F6000D0F86C0183F8BB009DF82E0010FB021006
:103F700093F82C1001EBC10100EB810090F8700167
:103F800083F8BC0093F82C00013083F8BD0093F84F
:103F90002C00013083F82C0093F82C00082808DB53
:103FA000FFE740F22030C2F20000002180F82C1020
:103FB000FFE71AE002208DF82900FFE79DF82900AD
:103FC000182811DCFFE79DF8290040F22031C2F2E9
:103FD00000010844002180F8A510FFE79DF82900A2
:103FE00001308DF82900E9E7FFE740F22030C2F206
:103FF0000000817D80F8BE1000F1A5011A22069014
:104000000846114607F032FCADF82A00BDF82A0038
:10401000069981F8C0009DF82B0081F8BF000120AF
:1040200088711C20C8710520888100F053BE40F2C1
:104030002030C2F2000090F82F1001398DF82E10B8
:1040400090F8311001398DF82D105A2180F8A51003
:104050004B2180F8A6109DF82E000B281EDCFFE7F0
:104060009DF82D00072819DCFFE79DF82E0040F28F
:104070001861C2F200014FF4227210FB02109DF889
:104080002D1001EBC10100EB810090F8E90140F235
:104090002031C2F2000181F8A70007E040F2203091
:1040A000C2F20000002180F8A710FFE740F22030A4
:1040B000C2F2000000F1A501032205900846114656
:1040C00007F0D4FBADF82A009DF82B00059981F884
:1040D000A800BDF82A0081F8A900012088710520F8
:1040E000C871888100F0F6BD40F22030C2F20000B5
:1040F00090F82F1001398DF82E1090F831100139F9
:104100008DF82D105A2180F8A5104B2180F8A610AB
:104110009DF82E000B281EDCFFE79DF82D000728D8
:1041200019DCFFE79DF82E0040F21861C2F2000191
:104130004FF4227210FB02109DF82D1001EBC1010B
:1041400000EB810090F8EA0140F22031C2F2000158
:1041500081F8A70007E040F22030C2F20000002101
:1041600080F8A710FFE740F22030C2F2000000F113
:10417000A501032204900846114607F077FBADF82D
:104180002A00BDF82A00049981F8A8009DF82B00A8
:1041900081F8A900012088710520C871888100F08C
:1041A00099BD40F22030C2F2000090F82F10013982
:1041B0008DF82E105A2180F8A5104B2180F8A610FA
:1041C0009DF82E000B2865DCFFE79DF82E0040F2DD
:1041D0001861C2F2000178314FF4227210FB021014
:1041E00090F8730140F22033C2F2000383F8A70075
:1041F0009DF82E0010FB021090F8970183F8A8009C
:104200009DF82E0010FB021090F8BB0183F8A90066
:104210009DF82E0010FB021090F8DF0183F8AA0031
:104220009DF82E0010FB021090F8030283F8AB00FB
:104230009DF82E0010FB021090F8270283F8AC00C6
:104240009DF82E0010FB021090F84B0283F8AD0091
:104250009DF82E0010FB021090F86F0283F8AE005C
:10426000002083F8AF0083F8B00083F8B10083F832
:10427000B20083F8B30083F8B40083F8B50083F884
:10428000B60083F8B70083F8B80083F8B90083F864
:10429000BA001AE002208DF82800FFE79DF82800F8
:1042A000152811DCFFE79DF8280040F22031C2F20A
:1042B00000010844002180F8A510FFE79DF82800C0
:1042C00001308DF82800E9E7FFE79DF82E0040F265
:1042D0001861C2F200014FF4227210FB021090F834
:1042E000780040F22031C2F2000181F8BB0001F1F8
:1042F000A50017220391114607F0B8FAADF82A007D
:10430000BDF82A00039981F8BD009DF82B0081F8C3
:10431000BC00012088711920C8710520888100F037
:10432000D9BC40F22030C2F2000090F82F100139C1
:104330008DF82E105A2180F8A5104B2180F8A61078
:104340009DF82E000B2800F31681FFE79DF82E0044
:1043500040F21861C2F2000178314FF4227210FB72
:10436000021090F8750140F22033C2F2000383F886
:10437000A7009DF82E0010FB0210B0F8740183F81E
:10438000A8009DF82E0010FB021090F8760183F82B
:10439000A9009DF82E0010FB021090F8990183F8F7
:1043A000AA009DF82E0010FB0210B0F8980183F8C7
:1043B000AB009DF82E0010FB021090F89A0183F8D4
:1043C000AC009DF82E0010FB021090F8BD0183F8A0
:1043D000AD009DF82E0010FB0210B0F8BC0183F870
:1043E000AE009DF82E0010FB021090F8BE0183F87D
:1043F000AF009DF82E0010FB021090F8E10183F849
:10440000B0009DF82E0010FB0210B0F8E00183F818
:10441000B1009DF82E0010FB021090F8E20183F825
:10442000B2009DF82E0010FB021090F8050283F8F0
:10443000B3009DF82E0010FB0210B0F8040283F8C0
:10444000B4009DF82E0010FB021090F8060283F8CD
:10445000B5009DF82E0010FB021090F8290283F899
:10446000B6009DF82E0010FB0210B0F8280283F869
:10447000B7009DF82E0010FB021090F82A0283F876
:10448000B8009DF82E0010FB021090F84D0283F842
:10449000B9009DF82E0010FB0210B0F84C0283F812
:1044A000BA009DF82E0010FB021090F84E0283F81F
:1044B000BB009DF82E0010FB021090F8710283F8EB
:1044C000BC009DF82E0010FB0210B0F8700283F8BB
:1044D000BD009DF82E0010FB021090F8720283F8C8
:1044E000BE00002083F8BF0083F8C00083F8C1003D
:1044F00083F8C20083F8C30083F8C40083F8C500C2
:1045000083F8C60083F8C70083F8C80083F8C900A1
:1045100083F8CA0083F8CB0083F8CC0083F8CD0081
:1045200083F8CE0083F8CF0083F8D00083F8D10061
:1045300083F8D20083F8D30083F8D40083F8D50041
:1045400083F8D60083F8D70083F8D80083F8D90021
:1045500083F8DA0083F8DB0083F8DC0083F8DD0001
:1045600083F8DE0083F8DF0083F8E00083F8E100E1
:1045700083F8E2001AE002208DF82700FFE79DF89B
:1045800027003D2811DCFFE79DF8270040F220318D
:10459000C2F200010844002180F8A510FFE79DF851
:1045A000270001308DF82700E9E7FFE740F22030CF
:1045B000C2F2000000F1A5013E2202900846114619
:1045C00007F054F9ADF82A00BDF82A00029981F8E5
:1045D000E3009DF82B0081F8E40001208871402061
:1045E000C8710520888175E340F22030C2F20000D6
:1045F00090F82F1001398DF82E105A2180F8A5104F
:104600004B2180F8A6109DF82E000B2800F3C681E0
:10461000FFE79DF82E0040F21861C2F200017831E8
:104620004FF4227210FB021090F8770140F2203311
:10463000C2F2000383F8A7009DF82E0010FB0210C1
:1046400090F8790183F8A8009DF82E0010FB021065
:10465000B0F8780183F8A9009DF82E0010FB021035
:1046600090F87B0183F8AA009DF82E0010FB021041
:10467000B0F87A0183F8AB009DF82E0010FB021011
:1046800090F89B0183F8AC009DF82E0010FB0210FF
:1046900090F89D0183F8AD009DF82E0010FB0210EC
:1046A000B0F89C0183F8AE009DF82E0010FB0210BC
:1046B00090F89F0183F8AF009DF82E0010FB0210C8
:1046C000B0F89E0183F8B0009DF82E0010FB021098
:1046D00090F8BF0183F8B1009DF82E0010FB021086
:1046E00090F8C10183F8B2009DF82E0010FB021073
:1046F000B0F8C00183F8B3009DF82E0010FB021043
:1047000090F8C30183F8B4009DF82E0010FB02104E
:10471000B0F8C20183F8B5009DF82E0010FB02101E
:1047200090F8E30183F8B6009DF82E0010FB02100C
:1047300090F8E50183F8B7009DF82E0010FB0210F9
:10474000B0F8E40183F8B8009DF82E0010FB0210C9
:1047500090F8E70183F8B9009DF82E0010FB0210D5
:10476000B0F8E60183F8BA009DF82E0010FB0210A5
:1047700090F8070283F8BB009DF82E0010FB021092
:1047800090F8090283F8BC009DF82E0010FB02107F
:10479000B0F8080283F8BD009DF82E0010FB02104F
:1047A00090F80B0283F8BE009DF82E0010FB02105B
:1047B000B0F80A0283F8BF009DF82E0010FB02102B
:1047C00090F82B0283F8C0009DF82E0010FB021019
:1047D00090F82D0283F8C1009DF82E0010FB021006
:1047E000B0F82C0283F8C2009DF82E0010FB0210D6
:1047F00090F82F0283F8C3009DF82E0010FB0210E2
:10480000B0F82E0283F8C4009DF82E0010FB0210B1
:1048100090F84F0283F8C5009DF82E0010FB02109F
:1048200090F8510283F8C6009DF82E0010FB02108C
:10483000B0F8500283F8C7009DF82E0010FB02105C
:1048400090F8530283F8C8009DF82E0010FB021068
:10485000B0F8520283F8C9009DF82E0010FB021038
:1048600090F8730283F8CA009DF82E0010FB021026
:1048700090F8750283F8CB009DF82E0010FB021013
:10488000B0F8740283F8CC009DF82E0010FB0210E3
:1048900090F8770283F8CD009DF82E0010FB0210EF
:1048A000B0F8760283F8CE00002083F8CF0083F8BA
:1048B000D00083F8D10083F8D20083F8D30083F8C6
:1048C000D40083F8D50083F8D60083F8D70083F8A6
:1048D000D80083F8D90083F8DA0083F8DB0083F886
:1048E000DC0083F8DD0083F8DE0083F8DF0083F866
:1048F000E00083F8E10083F8E20083F8E30083F846
:10490000E40083F8E50083F8E60083F8E70083F825
:10491000E80083F8E90083F8EA0083F8EB0083F805
:10492000EC0083F8ED0083F8EE0083F8EF0083F8E5
:10493000F00083F8F10083F8F20083F8F30083F8C5
:10494000F40083F8F50083F8F60083F8F70083F8A5
:10495000F80083F8F90083F8FA0083F8FB0083F885
:10496000FC0083F8FD0083F8FE0083F8FF0083F865
:10497000000183F8010183F8020183F8030183F841
:10498000040183F8050183F8060183F8070183F821
:10499000080183F8090183F80A011AE002208DF862
:1049A0002600FFE79DF82600652811DCFFE79DF84B
:1049B000260040F22031C2F200010844002180F8B4
:1049C000A510FFE79DF8260001308DF82600E9E7E5
:1049D000FFE740F22030C2F2000000F1A50166229C
:1049E00001900846114606F041FFADF82A00BDF8D7
:1049F0002A00019981F80B019DF82B0081F80C0128
:104A0000012088716820C8710520888162E140F228
:104A10002030C2F2000090F82F1001398DF82E10CE
:104A200090F8311001398DF82D105A2180F8A51019
:104A30004B2180F8A6109DF82E000B2800F3108162
:104A4000FFE79DF82D00072800F30A81FFE79DF896
:104A50002E0040F21861C2F2000178314FF4227248
:104A600010FB02109DF82D3003EBC30300EB830015
:104A700090F87C0140F22033C2F2000383F8A700D3
:104A80009DF82E0010FB02109DF82DC00CEBCC0CF5
:104A900000EB8C0090F87D0183F8A8009DF82E00B3
:104AA00010FB02109DF82DC00CEBCC0C00EB8C0021
:104AB00090F87E0183F8A9009DF82E0010FB0210EB
:104AC0009DF82DC00CEBCC0C00EB8C0090F87F0116
:104AD00083F8AA009DF82E0010FB02109DF82DC04F
:104AE0000CEBCC0C00EB8C0090F8800183F8AB0051
:104AF0009DF82E0010FB02109DF82DC00CEBCC0C85
:104B000000EB8C0090F8810183F8AC009DF82E003A
:104B100010FB02109DF82DC00CEBCC0C00EB8C00B0
:104B200090F8820183F8AD009DF82E0010FB021072
:104B30009DF82DC00CEBCC0C00EB8C0090F88301A1
:104B400083F8AE009DF82E0010FB02109DF82DC0DA
:104B50000CEBCC0C00EB8C0090F8840183F8AF00D8
:104B60009DF82E0010FB02109DF82DC00CEBCC0C14
:104B700000EB8C0090F8850183F8B0009DF82E00C2
:104B800010FB02109DF82DC00CEBCC0C00EB8C0040
:104B900090F8860183F8B1009DF82E0010FB0210FA
:104BA0009DF82DC00CEBCC0C00EB8C0090F887012D
:104BB00083F8B2009DF82E0010FB02109DF82DC066
:104BC0000CEBCC0C00EB8C0090F8880183F8B30060
:104BD0009DF82E0010FB02109DF82DC00CEBCC0CA4
:104BE00000EB8C0090F8890183F8B4009DF82E004A
:104BF00010FB02109DF82DC00CEBCC0C00EB8C00D0
:104C000090F88A0183F8B5009DF82E0010FB021081
:104C10009DF82D1001EBC10100EB810090F88B0194
:104C200083F8B600002083F8B70083F8B80083F853
:104C3000B90083F8BA0083F8BB0083F8BC0083F89E
:104C4000BD0083F8BE0083F8BF0083F8C00083F87E
:104C5000C10083F8C20083F8C30083F8C4001AE0DF
:104C600002208DF82500FFE79DF825001F2811DCA4
:104C7000FFE79DF8250040F22031C2F20001084410
:104C8000002180F8A510FFE79DF8250001308DF880
:104C90002500E9E7FFE740F22030C2F2000000F112
:104CA000A501202200900846114606F0DFFDADF870
:104CB0002A00BDF82A00009981F8C5009DF82B0054
:104CC00081F8C600012088712220C87105208881E2
:104CD00000E0FFE70CB080BD80B582B000208DF809
:104CE00007008DF8060040F26011C2F2000191F851
:104CF0003320002A18BF012242F2A853C2F2000357
:104D000083F800214FF05A0281F8F8204FF04B024F
:104D100081F8F9204FF00C0281F8FA2040F2186275
:104D2000C2F20002537881F8FB30138881F8FC301E
:104D3000D37881F8FD30538881F8FE30537981F8BB
:104D4000FF30938881F80031D37981F80131D3881D
:104D500081F80231537A81F80331138981F80431E3
:104D6000D37A81F80531538981F80631537B81F874
:104D70000731938981F80831937B81F80931D37B1E
:104D800081F80A31137C81F80B31537C81F80C31A6
:104D9000937C81F80D31D37C81F80E31137D81F83D
:104DA0000F31537D81F81031937D81F81131D37D1E
:104DB00081F81231CB8A002B18BF012381F81331FF
:104DC00081F814014FF06D0381F8153181F8160157
:104DD00092F8603081F8173181F8180192F86C3040
:104DE00081F8193181F81A0141F68873D35C81F892
:104DF0001B3141F6D86302EB030C81F81C01D35C34
:104E000081F81D3181F81E019CF82C3081F81F318A
:104E100081F820019CF8583081F8213181F8220175
:104E20009CF8843081F8233181F8240181F8250130
:104E300081F8260181F8270181F8280181F82901EC
:104E4000507E81F82A01108B81F82B01D07E81F8E9
:104E50002C01508B81F82D01507F81F82E01908B11
:104E600081F82F01D07F81F83001D08B81F831019A
:104E700092F8210081F83201108C81F8330192F808
:104E8000230081F83401508C81F8350192F8250017
:104E900081F83601908C81F8370192F8270081F86B
:104EA0003801D08C81F8390192F8290081F83A0153
:104EB000108D81F83B0192F82B0081F83C01508D58
:104EC00081F83D0192F82D0081F83E01908D81F826
:104ED0003F0192F82F0081F84001D08D81F8410107
:104EE00092F8310081F84201108E81F8430192F866
:104EF000330081F84401508E81F8450192F8350065
:104F000081F84601908E81F8470192F8370081F8C8
:104F10004801D08E81F8490192F8390081F84A01A0
:104F2000108F81F84B0192F83B0081F84C01508FB3
:104F300081F84D0192F83D0081F84E01908F81F883
:104F40004F0192F83F0081F85001D08F81F8510154
:104F500092F8410081F85201B2F8400081F8530103
:104F600092F8430081F85401B2F8420081F85501EB
:104F700092F8450081F85601B2F8440081F85701D3
:104F800092F8470081F85801B2F8460081F85901BB
:104F900092F8490081F85A01B2F8480081F85B01A3
:104FA00092F84B0081F85C01B2F84A0081F85D018B
:104FB00092F84D0081F85E01B2F84C0081F85F0173
:104FC00092F84F0081F86001B2F84E0081F861015B
:104FD00092F8510081F86201B2F8500081F8630143
:104FE00092F8530081F86401B2F8520081F865012B
:104FF00092F8550081F86601B2F8540081F8670113
:1050000092F8570081F86801B2F8560081F86901FA
:1050100092F8590081F86A01B2F8580081F86B01E2
:1050200092F85B0081F86C01B2F85A0081F86D01CA
:1050300092F85D0081F86E01B2F85C0081F86F01B2
:105040004FF078008DF80600FFE79DF806009D28D8
:1050500011DCFFE79DF8060040F26011C2F200018A
:105060000844002180F8F810FFE79DF806000130A1
:105070008DF80600E9E740F26010C2F2000000F18E
:10508000F8019E220090084611460AF037F98DF883
:1050900007009DF80700009981F8960191F89601A4
:1050A000C0F1FF0081F8970101208871A020C8712C
:1050B0000520888102B080BD80B584B00020ADF8A5
:1050C0000E008DF80D008DF80C008DF80B0040F2ED
:1050D0006011C2F2000191F8FB208DF80C2091F8CC
:1050E000FC2042F2A853C2F2000383F82F2191F86A
:1050F000FD2083F8302191F8FE2083F831215A22D7
:1051000081F8F8204B2281F8F9200D2281F8FA204D
:105110009DF80C200B2A0246C8BF0B2281F8FB2009
:10512000ADF80E008DF80B009DF80C0040F21861F0
:10513000C2F200014FF4227210FB021090F88100BD
:1051400000280BD0FFE7BDF80E000130ADF80E00CF
:105150009DF80B0001308DF80B00FFE79DF80C0067
:1051600040F21861C2F200014FF4227210FB0210EB
:1051700090F8AD0000280BD0FFE7BDF80E0002301C
:10518000ADF80E009DF80B0001308DF80B00FFE725
:105190009DF80C0040F21861C2F200014FF4227237
:1051A00010FB021090F8D90000280BD0FFE7BDF8E3
:1051B0000E000430ADF80E009DF80B0001308DF8A4
:1051C0000B00FFE79DF80C0040F21861C2F20001ED
:1051D0004FF4227210FB021090F8050100280BD04A
:1051E000FFE7BDF80E000830ADF80E009DF80B008B
:1051F00001308DF80B00FFE79DF80C0040F21861BC
:10520000C2F200014FF4227210FB021090F831013B
:1052100000280BD0FFE7BDF80E001030ADF80E00EF
:105220009DF80B0001308DF80B00FFE79DF80C0096
:1052300040F21861C2F200014FF4227210FB02101A
:1052400090F85D0100280BD0FFE7BDF80E0020307C
:10525000ADF80E009DF80B0001308DF80B00FFE754
:105260009DF80C0040F21861C2F200014FF4227266
:1052700010FB021090F8890100280BD0FFE7BDF861
:105280000E004030ADF80E009DF80B0001308DF897
:105290000B00FFE79DF80C0040F21861C2F200011C
:1052A0004FF4227210FB021090F8B50100280BD0C9
:1052B000FFE7BDF80E008030ADF80E009DF80B0042
:1052C00001308DF80B00FFE79DF80E0040F26011F1
:1052D000C2F2000181F8FC009DF80C0040F2186257
:1052E000C2F2000278324FF4227310FB03204078A0
:1052F00081F8FD000020ADF80E009DF80C0010FBB9
:105300000320807A002806D0FFE7BDF80E000130A8
:10531000ADF80E00FFE79DF80C0040F21861C2F2F4
:1053200000014FF4227210FB021090F8AE0000282A
:1053300006D0FFE7BDF80E000230ADF80E00FFE723
:105340009DF80C0040F21861C2F200014FF4227285
:1053500010FB021090F8DA00002806D0FFE7BDF835
:105360000E000430ADF80E00FFE79DF80C0040F28F
:105370001861C2F200014FF4227210FB021090F883
:105380000601002806D0FFE7BDF80E000830ADF892
:105390000E00FFE79DF80C0040F21861C2F2000118
:1053A0004FF4227210FB021090F83201002806D050
:1053B000FFE7BDF80E001030ADF80E00FFE79DF8D6
:1053C0000C0040F21861C2F200014FF4227210FB8F
:1053D000021090F85E01002806D0FFE7BDF80E002D
:1053E0002030ADF80E00FFE79DF80C0040F2186188
:1053F000C2F200014FF4227210FB021090F88A01F1
:10540000002806D0FFE7BDF80E004030ADF80E00D2
:10541000FFE79DF80C0040F21861C2F200014FF462
:10542000227210FB021090F8B601002806D0FFE7A8
:10543000BDF80E008030ADF80E00FFE79DF80E00BD
:1054400040F26011C2F2000181F8FE00002081F8F4
:10545000FF009DF80B0081F800019DF80C0042F25E
:10546000A852C2F2000202F59A7202EB8000408854
:1054700081F801019DF80C0052F82000000A81F823
:1054800002019DF80C0052F8200081F803017820F9
:105490008DF80D00FFE79DF80D009D2811DCFFE75A
:1054A0009DF80D0040F26011C2F200010844002195
:1054B00080F8F810FFE79DF80D0001308DF80D0021
:1054C000E9E740F26010C2F2000000F1F8019E220C
:1054D00001900846114609F011FFADF80E00BDF825
:1054E0000E00019981F8960191F89601C0F1FF0034
:1054F00081F8970101208871A020C871052088815A
:1055000004B080BD80B584B00020ADF80E0040F23C
:105510006011C2F2000191F8332042F2D473C2F25A
:1055200000035A8091F834209A8091F8352091F840
:1055300036C04CEA0222DA80D1F8372012BA9A60DB
:1055400091F83B2091F83CC04CEA02229A8191F8F4
:105550003D2091F83EC04CEA0222DA8191F83F20CA
:105560009A8591F840201A8291F841205A8691F844
:1055700042209A8291F84320DA824A6C12BA9A61E8
:1055800091F8482091F849C04CEA02229A8391F898
:105590004A2091F84BC04CEA0222DA8391F84C2061
:1055A00091F84DC04CEA02221A8491F84E2091F8ED
:1055B0004FC04CEA02225A8491F8502091F851C011
:1055C0004CEA02229A8491F8522091F853C04CEA96
:1055D0000222DA8491F8542091F855C04CEA022254
:1055E0001A8591F8562091F857C04CEA02225A8544
:1055F00091F8582091F859C04CEA0222DA8591F8C6
:105600005A201A8691F85B20A3F87A20CA8A22F0E1
:105610000102CA8208830A8B01320A8364224A8308
:105620005A2201F8F82F4B224A7001228A70C87062
:10563000087148718871C871082002900846029B61
:1056400001911946009209F059FEADF80E00BDF81F
:105650000E0001990872087AC0F1FF0048720098A4
:1056600001F8F20C0A2201F8F12C052221F8EC2CA9
:1056700004B080BD80B584B00020ADF80E0040F2CB
:105680006011C2F2000191F8332040F21813C2F207
:1056900000031A8091F834205A8091F835209A80BE
:1056A00091F83620DA8091F837201A8191F8382065
:1056B0005A8191F839209A8191F83A20DA8191F84B
:1056C0003B201A8291F83C205A8291F83D209A8220
:1056D00091F83E20DA8291F83F201A8391F8402019
:1056E0005A8391F841209A8391F84220DA8391F805
:1056F00043201A8491F844205A8491F845209A84D2
:1057000091F84620DA8491F847201A8591F84820CC
:105710005A8591F849209A8591F84A20DA8591F8BE
:105720004B201A8691F84C205A8691F84D209A8683
:1057300091F84E20DA86CA8A22F08002CA820A8B49
:1057400080320A8364224A835A2201F8F82F4B22BE
:105750004A7011228A70C870087148718871C871C6
:10576000082002900846029A0191114609F0C6FDF0
:10577000ADF80E00BDF80E0001990872087AC0F16C
:10578000FF004872012001F8F20C0A2001F8F10C28
:10579000052021F8EC0C04B080BD000080B584B079
:1057A0000020ADF80E0040F26011C2F2000191F845
:1057B000332091F8343043EA022242F2D473C2F229
:1057C00000039A8691F8352091F836C04CEA0222FF
:1057D000DA8691F8372091F838C04CEA02221A870D
:1057E00091F839205A8791F83A209A8791F83B200E
:1057F00091F83CC04CEA0222DA8791F83D2091F8FA
:105800003EC04CEA0222A3F8402091F83F2091F8D4
:1058100040C04CEA0222A3F8422091F8412091F8BE
:1058200042C04CEA0222A3F8442091F8432091F8A8
:1058300044C04CEA0222A3F8462091F8452091F892
:1058400046C04CEA0222A3F8482091F8472091F87C
:1058500048C04CEA0222A3F84A2091F8492091F866
:105860004AC04CEA0222A3F84C2091F84B2091F850
:105870004CC04CEA0222A3F84E2091F84D2091F83A
:105880004EC04CEA0222A3F85020CA8A22F002023B
:10589000CA820A8B02320A8364224A835A2201F89E
:1058A000F82F4B224A7002228A70C8700871487122
:1058B0008871C871082002900846029A0191114629
:1058C00009F01CFDADF80E00BDF80E00019908723C
:1058D000087AC0F1FF004872012001F8F20C0A209A
:1058E00001F8F10C052021F8EC0C04B080BD00009B
:1058F00080B584B00020ADF80E0040F26011C2F215
:10590000000191F8332042F2D473C2F20003A3F8ED
:10591000762091F83420A3F8782091F8352091F87A
:1059200036C091F837E0120442EA0C227244DA677A
:1059300091F8382091F839C091F83AE0120442EA1F
:105940000C227244C3F8802091F83B2091F83CC0AF
:1059500091F83DE0120442EA0C227244C3F884201C
:1059600091F83E2091F83FC091F840E0120442EADD
:105970000C227244C3F8882091F8412091F842C06B
:1059800091F843E0120442EA0C227244C3F88C20DE
:1059900091F8442091F845C091F846E0120442EA9B
:1059A0000C227244C3F8902091F8472091F848C027
:1059B00091F849E0120442EA0C227244C3F89420A0
:1059C00091F84A2091F84BC091F84CE0120442EA59
:1059D0000C227244C3F8982091F84D2091F84EC0E3
:1059E0004CEA0222A3F89C2091F84F2091F850C075
:1059F0004CEA0222A3F89E2091F8512091F852C05F
:105A00004CEA0222A3F8A02091F8532091F854C048
:105A10004CEA0222A3F8A22091F8552091F856C032
:105A20004CEA0222A3F8A42091F8572091F858C01C
:105A30004CEA0222A3F8A62091F8592091F85AC006
:105A40004CEA0222A3F8A82091F85B2091F85CC0F0
:105A50004CEA0222A3F8AA2091F85D2091F85EC0DA
:105A60004CEA0222A3F8AC20CA8A22F00402CA82BD
:105A70000A8B04320A8364224A835A2201F8F82FDF
:105A80004B224A7003228A70C8700871487188716D
:105A9000C871082002900846029A0191114609F047
:105AA0002DFCADF80E00BDF80E0001990872087AC1
:105AB000C0F1FF004872012001F8F20C0A2001F841
:105AC000F10C052021F8EC0C04B080BD80B584B049
:105AD0000020ADF80E0040F26011C2F2000191F812
